{
  "_format": "hh-sol-artifact-1",
  "contractName": "MyEpicGame",
  "sourceName": "contracts/MyEpicGame.sol",
  "abi": [
    {
      "inputs": [
        {
          "internalType": "string[]",
          "name": "characterNames",
          "type": "string[]"
        },
        {
          "internalType": "string[]",
          "name": "characterImageURIs",
          "type": "string[]"
        },
        {
          "internalType": "uint256[]",
          "name": "characterHp",
          "type": "uint256[]"
        },
        {
          "internalType": "uint256[]",
          "name": "characterAttackDmg",
          "type": "uint256[]"
        },
        {
          "internalType": "string",
          "name": "bossName",
          "type": "string"
        },
        {
          "internalType": "string",
          "name": "bossImageURI",
          "type": "string"
        },
        {
          "internalType": "uint256",
          "name": "bossHp",
          "type": "uint256"
        },
        {
          "internalType": "uint256",
          "name": "bossAttackDamage",
          "type": "uint256"
        }
      ],
      "stateMutability": "nonpayable",
      "type": "constructor"
    },
    {
      "anonymous": false,
      "inputs": [
        {
          "indexed": true,
          "internalType": "address",
          "name": "owner",
          "type": "address"
        },
        {
          "indexed": true,
          "internalType": "address",
          "name": "approved",
          "type": "address"
        },
        {
          "indexed": true,
          "internalType": "uint256",
          "name": "tokenId",
          "type": "uint256"
        }
      ],
      "name": "Approval",
      "type": "event"
    },
    {
      "anonymous": false,
      "inputs": [
        {
          "indexed": true,
          "internalType": "address",
          "name": "owner",
          "type": "address"
        },
        {
          "indexed": true,
          "internalType": "address",
          "name": "operator",
          "type": "address"
        },
        {
          "indexed": false,
          "internalType": "bool",
          "name": "approved",
          "type": "bool"
        }
      ],
      "name": "ApprovalForAll",
      "type": "event"
    },
    {
      "anonymous": false,
      "inputs": [
        {
          "indexed": false,
          "internalType": "uint256",
          "name": "newBossHp",
          "type": "uint256"
        },
        {
          "indexed": false,
          "internalType": "uint256",
          "name": "newPlayerHp",
          "type": "uint256"
        }
      ],
      "name": "AttackComplete",
      "type": "event"
    },
    {
      "anonymous": false,
      "inputs": [
        {
          "indexed": false,
          "internalType": "address",
          "name": "sender",
          "type": "address"
        },
        {
          "indexed": false,
          "internalType": "uint256",
          "name": "tokenId",
          "type": "uint256"
        },
        {
          "indexed": false,
          "internalType": "uint256",
          "name": "characterIndex",
          "type": "uint256"
        }
      ],
      "name": "CharacterNFTMinted",
      "type": "event"
    },
    {
      "anonymous": false,
      "inputs": [
        {
          "indexed": true,
          "internalType": "address",
          "name": "from",
          "type": "address"
        },
        {
          "indexed": true,
          "internalType": "address",
          "name": "to",
          "type": "address"
        },
        {
          "indexed": true,
          "internalType": "uint256",
          "name": "tokenId",
          "type": "uint256"
        }
      ],
      "name": "Transfer",
      "type": "event"
    },
    {
      "inputs": [
        {
          "internalType": "address",
          "name": "to",
          "type": "address"
        },
        {
          "internalType": "uint256",
          "name": "tokenId",
          "type": "uint256"
        }
      ],
      "name": "approve",
      "outputs": [],
      "stateMutability": "nonpayable",
      "type": "function"
    },
    {
      "inputs": [],
      "name": "attackBoss",
      "outputs": [],
      "stateMutability": "nonpayable",
      "type": "function"
    },
    {
      "inputs": [
        {
          "internalType": "address",
          "name": "owner",
          "type": "address"
        }
      ],
      "name": "balanceOf",
      "outputs": [
        {
          "internalType": "uint256",
          "name": "",
          "type": "uint256"
        }
      ],
      "stateMutability": "view",
      "type": "function"
    },
    {
      "inputs": [],
      "name": "bigBoss",
      "outputs": [
        {
          "internalType": "string",
          "name": "name",
          "type": "string"
        },
        {
          "internalType": "string",
          "name": "imageURI",
          "type": "string"
        },
        {
          "internalType": "uint256",
          "name": "hp",
          "type": "uint256"
        },
        {
          "internalType": "uint256",
          "name": "maxHp",
          "type": "uint256"
        },
        {
          "internalType": "uint256",
          "name": "attackDamage",
          "type": "uint256"
        }
      ],
      "stateMutability": "view",
      "type": "function"
    },
    {
      "inputs": [],
      "name": "checkIfUserHasNFT",
      "outputs": [
        {
          "components": [
            {
              "internalType": "uint256",
              "name": "characterIndex",
              "type": "uint256"
            },
            {
              "internalType": "string",
              "name": "name",
              "type": "string"
            },
            {
              "internalType": "string",
              "name": "imageURI",
              "type": "string"
            },
            {
              "internalType": "uint256",
              "name": "hp",
              "type": "uint256"
            },
            {
              "internalType": "uint256",
              "name": "maxHp",
              "type": "uint256"
            },
            {
              "internalType": "uint256",
              "name": "attackDamage",
              "type": "uint256"
            }
          ],
          "internalType": "struct MyEpicGame.CharacterAttributes",
          "name": "",
          "type": "tuple"
        }
      ],
      "stateMutability": "view",
      "type": "function"
    },
    {
      "inputs": [],
      "name": "getAppDefaultCharacters",
      "outputs": [
        {
          "components": [
            {
              "internalType": "uint256",
              "name": "characterIndex",
              "type": "uint256"
            },
            {
              "internalType": "string",
              "name": "name",
              "type": "string"
            },
            {
              "internalType": "string",
              "name": "imageURI",
              "type": "string"
            },
            {
              "internalType": "uint256",
              "name": "hp",
              "type": "uint256"
            },
            {
              "internalType": "uint256",
              "name": "maxHp",
              "type": "uint256"
            },
            {
              "internalType": "uint256",
              "name": "attackDamage",
              "type": "uint256"
            }
          ],
          "internalType": "struct MyEpicGame.CharacterAttributes[]",
          "name": "",
          "type": "tuple[]"
        }
      ],
      "stateMutability": "view",
      "type": "function"
    },
    {
      "inputs": [
        {
          "internalType": "uint256",
          "name": "tokenId",
          "type": "uint256"
        }
      ],
      "name": "getApproved",
      "outputs": [
        {
          "internalType": "address",
          "name": "",
          "type": "address"
        }
      ],
      "stateMutability": "view",
      "type": "function"
    },
    {
      "inputs": [],
      "name": "getBigBoss",
      "outputs": [
        {
          "components": [
            {
              "internalType": "string",
              "name": "name",
              "type": "string"
            },
            {
              "internalType": "string",
              "name": "imageURI",
              "type": "string"
            },
            {
              "internalType": "uint256",
              "name": "hp",
              "type": "uint256"
            },
            {
              "internalType": "uint256",
              "name": "maxHp",
              "type": "uint256"
            },
            {
              "internalType": "uint256",
              "name": "attackDamage",
              "type": "uint256"
            }
          ],
          "internalType": "struct MyEpicGame.BigBoss",
          "name": "",
          "type": "tuple"
        }
      ],
      "stateMutability": "view",
      "type": "function"
    },
    {
      "inputs": [
        {
          "internalType": "address",
          "name": "owner",
          "type": "address"
        },
        {
          "internalType": "address",
          "name": "operator",
          "type": "address"
        }
      ],
      "name": "isApprovedForAll",
      "outputs": [
        {
          "internalType": "bool",
          "name": "",
          "type": "bool"
        }
      ],
      "stateMutability": "view",
      "type": "function"
    },
    {
      "inputs": [
        {
          "internalType": "uint256",
          "name": "_characterIndex",
          "type": "uint256"
        }
      ],
      "name": "mintCharacterNFT",
      "outputs": [],
      "stateMutability": "nonpayable",
      "type": "function"
    },
    {
      "inputs": [],
      "name": "name",
      "outputs": [
        {
          "internalType": "string",
          "name": "",
          "type": "string"
        }
      ],
      "stateMutability": "view",
      "type": "function"
    },
    {
      "inputs": [
        {
          "internalType": "uint256",
          "name": "",
          "type": "uint256"
        }
      ],
      "name": "nftHolderAttributes",
      "outputs": [
        {
          "internalType": "uint256",
          "name": "characterIndex",
          "type": "uint256"
        },
        {
          "internalType": "string",
          "name": "name",
          "type": "string"
        },
        {
          "internalType": "string",
          "name": "imageURI",
          "type": "string"
        },
        {
          "internalType": "uint256",
          "name": "hp",
          "type": "uint256"
        },
        {
          "internalType": "uint256",
          "name": "maxHp",
          "type": "uint256"
        },
        {
          "internalType": "uint256",
          "name": "attackDamage",
          "type": "uint256"
        }
      ],
      "stateMutability": "view",
      "type": "function"
    },
    {
      "inputs": [
        {
          "internalType": "address",
          "name": "",
          "type": "address"
        }
      ],
      "name": "nftHolders",
      "outputs": [
        {
          "internalType": "uint256",
          "name": "",
          "type": "uint256"
        }
      ],
      "stateMutability": "view",
      "type": "function"
    },
    {
      "inputs": [
        {
          "internalType": "uint256",
          "name": "tokenId",
          "type": "uint256"
        }
      ],
      "name": "ownerOf",
      "outputs": [
        {
          "internalType": "address",
          "name": "",
          "type": "address"
        }
      ],
      "stateMutability": "view",
      "type": "function"
    },
    {
      "inputs": [
        {
          "internalType": "address",
          "name": "from",
          "type": "address"
        },
        {
          "internalType": "address",
          "name": "to",
          "type": "address"
        },
        {
          "internalType": "uint256",
          "name": "tokenId",
          "type": "uint256"
        }
      ],
      "name": "safeTransferFrom",
      "outputs": [],
      "stateMutability": "nonpayable",
      "type": "function"
    },
    {
      "inputs": [
        {
          "internalType": "address",
          "name": "from",
          "type": "address"
        },
        {
          "internalType": "address",
          "name": "to",
          "type": "address"
        },
        {
          "internalType": "uint256",
          "name": "tokenId",
          "type": "uint256"
        },
        {
          "internalType": "bytes",
          "name": "_data",
          "type": "bytes"
        }
      ],
      "name": "safeTransferFrom",
      "outputs": [],
      "stateMutability": "nonpayable",
      "type": "function"
    },
    {
      "inputs": [
        {
          "internalType": "address",
          "name": "operator",
          "type": "address"
        },
        {
          "internalType": "bool",
          "name": "approved",
          "type": "bool"
        }
      ],
      "name": "setApprovalForAll",
      "outputs": [],
      "stateMutability": "nonpayable",
      "type": "function"
    },
    {
      "inputs": [
        {
          "internalType": "bytes4",
          "name": "interfaceId",
          "type": "bytes4"
        }
      ],
      "name": "supportsInterface",
      "outputs": [
        {
          "internalType": "bool",
          "name": "",
          "type": "bool"
        }
      ],
      "stateMutability": "view",
      "type": "function"
    },
    {
      "inputs": [],
      "name": "symbol",
      "outputs": [
        {
          "internalType": "string",
          "name": "",
          "type": "string"
        }
      ],
      "stateMutability": "view",
      "type": "function"
    },
    {
      "inputs": [
        {
          "internalType": "uint256",
          "name": "_tokenId",
          "type": "uint256"
        }
      ],
      "name": "tokenURI",
      "outputs": [
        {
          "internalType": "string",
          "name": "",
          "type": "string"
        }
      ],
      "stateMutability": "view",
      "type": "function"
    },
    {
      "inputs": [
        {
          "internalType": "address",
          "name": "from",
          "type": "address"
        },
        {
          "internalType": "address",
          "name": "to",
          "type": "address"
        },
        {
          "internalType": "uint256",
          "name": "tokenId",
          "type": "uint256"
        }
      ],
      "name": "transferFrom",
      "outputs": [],
      "stateMutability": "nonpayable",
      "type": "function"
    }
  ],
  "bytecode": "0x60806040523480156200001157600080fd5b506040516200587338038062005873833981810160405281019062000037919062000a85565b6040518060400160405280600881526020017f4f6e6550696563650000000000000000000000000000000000000000000000008152506040518060400160405280600881526020017f4f4e4550494543450000000000000000000000000000000000000000000000008152508160009080519060200190620000bb929190620007ed565b508060019080519060200190620000d4929190620007ed565b5050506040518060a0016040528085815260200184815260200183815260200183815260200182815250600660008201518160000190805190602001906200011e929190620007ed565b5060208201518160010190805190602001906200013d929190620007ed565b50604082015181600201556060820151816003015560808201518160040155905050620002c06040518060600160405280602a815260200162005849602a9139600660000180546200018f9062000e08565b80601f0160208091040260200160405190810160405280929190818152602001828054620001bd9062000e08565b80156200020e5780601f10620001e2576101008083540402835291602001916200020e565b820191906000526020600020905b815481529060010190602001808311620001f057829003601f168201915b5050505050600660020154600660010180546200022b9062000e08565b80601f0160208091040260200160405190810160405280929190818152602001828054620002599062000e08565b8015620002aa5780601f106200027e57610100808354040283529160200191620002aa565b820191906000526020600020905b8154815290600101906020018083116200028c57829003601f168201915b50505050506200070260201b62001b931760201c565b60005b8851811015620006dc57600c6040518060c001604052808381526020018b84815181106200031a577f4e487b7100000000000000000000000000000000000000000000000000000000600052603260045260246000fd5b602002602001015181526020018a848151811062000361577f4e487b7100000000000000000000000000000000000000000000000000000000600052603260045260246000fd5b60200260200101518152602001898481518110620003a8577f4e487b7100000000000000000000000000000000000000000000000000000000600052603260045260246000fd5b60200260200101518152602001898481518110620003ef577f4e487b7100000000000000000000000000000000000000000000000000000000600052603260045260246000fd5b6020026020010151815260200188848151811062000436577f4e487b7100000000000000000000000000000000000000000000000000000000600052603260045260246000fd5b6020026020010151815250908060018154018082558091505060019003906000526020600020906006020160009091909190915060008201518160000155602082015181600101908051906020019062000492929190620007ed565b506040820151816002019080519060200190620004b1929190620007ed565b50606082015181600301556080820151816004015560a0820151816005015550506000600c82815481106200050f577f4e487b7100000000000000000000000000000000000000000000000000000000600052603260045260246000fd5b90600052602060002090600602016040518060c001604052908160008201548152602001600182018054620005449062000e08565b80601f0160208091040260200160405190810160405280929190818152602001828054620005729062000e08565b8015620005c35780601f106200059757610100808354040283529160200191620005c3565b820191906000526020600020905b815481529060010190602001808311620005a557829003601f168201915b50505050508152602001600282018054620005de9062000e08565b80601f01602080910402602001604051908101604052809291908181526020018280546200060c9062000e08565b80156200065d5780601f1062000631576101008083540402835291602001916200065d565b820191906000526020600020905b8154815290600101906020018083116200063f57829003601f168201915b5050505050815260200160038201548152602001600482015481526020016005820154815250509050620006c460405180606001604052806025815260200162005824602591398260200151836060015184604001516200070260201b62001b931760201c565b50600181620006d4919062000d6b565b9050620002c3565b50620006f4600b620007ae60201b62001c351760201c565b505050505050505062000f2c565b620007a8848484846040516024016200071f949392919062000c30565b6040516020818303038152906040527f8d142cdd000000000000000000000000000000000000000000000000000000007bffffffffffffffffffffffffffffffffffffffffffffffffffffffff19166020820180517bffffffffffffffffffffffffffffffffffffffffffffffffffffffff8381831617835250505050620007c460201b60201c565b50505050565b6001816000016000828254019250508190555050565b60008151905060006a636f6e736f6c652e6c6f679050602083016000808483855afa5050505050565b828054620007fb9062000e08565b90600052602060002090601f0160209004810192826200081f57600085556200086b565b82601f106200083a57805160ff19168380011785556200086b565b828001600101855582156200086b579182015b828111156200086a5782518255916020019190600101906200084d565b5b5090506200087a91906200087e565b5090565b5b80821115620008995760008160009055506001016200087f565b5090565b6000620008b4620008ae8462000cbb565b62000c92565b90508083825260208201905082856020860282011115620008d457600080fd5b60005b858110156200092357815167ffffffffffffffff811115620008f857600080fd5b80860162000907898262000a41565b85526020850194506020840193505050600181019050620008d7565b5050509392505050565b6000620009446200093e8462000cea565b62000c92565b905080838252602082019050828560208602820111156200096457600080fd5b60005b858110156200099857816200097d888262000a6e565b84526020840193506020830192505060018101905062000967565b5050509392505050565b6000620009b9620009b38462000d19565b62000c92565b905082815260208101848484011115620009d257600080fd5b620009df84828562000dd2565b509392505050565b600082601f830112620009f957600080fd5b815162000a0b8482602086016200089d565b91505092915050565b600082601f83011262000a2657600080fd5b815162000a388482602086016200092d565b91505092915050565b600082601f83011262000a5357600080fd5b815162000a65848260208601620009a2565b91505092915050565b60008151905062000a7f8162000f12565b92915050565b600080600080600080600080610100898b03121562000aa357600080fd5b600089015167ffffffffffffffff81111562000abe57600080fd5b62000acc8b828c01620009e7565b985050602089015167ffffffffffffffff81111562000aea57600080fd5b62000af88b828c01620009e7565b975050604089015167ffffffffffffffff81111562000b1657600080fd5b62000b248b828c0162000a14565b965050606089015167ffffffffffffffff81111562000b4257600080fd5b62000b508b828c0162000a14565b955050608089015167ffffffffffffffff81111562000b6e57600080fd5b62000b7c8b828c0162000a41565b94505060a089015167ffffffffffffffff81111562000b9a57600080fd5b62000ba88b828c0162000a41565b93505060c062000bbb8b828c0162000a6e565b92505060e062000bce8b828c0162000a6e565b9150509295985092959890939650565b600062000beb8262000d4f565b62000bf7818562000d5a565b935062000c0981856020860162000dd2565b62000c148162000f01565b840191505092915050565b62000c2a8162000dc8565b82525050565b6000608082019050818103600083015262000c4c818762000bde565b9050818103602083015262000c62818662000bde565b905062000c73604083018562000c1f565b818103606083015262000c87818462000bde565b905095945050505050565b600062000c9e62000cb1565b905062000cac828262000e3e565b919050565b6000604051905090565b600067ffffffffffffffff82111562000cd95762000cd862000ed2565b5b602082029050602081019050919050565b600067ffffffffffffffff82111562000d085762000d0762000ed2565b5b602082029050602081019050919050565b600067ffffffffffffffff82111562000d375762000d3662000ed2565b5b62000d428262000f01565b9050602081019050919050565b600081519050919050565b600082825260208201905092915050565b600062000d788262000dc8565b915062000d858362000dc8565b9250827fffffffffffffffffffffffffffffffffffffffffffffffffffffffffffffffff0382111562000dbd5762000dbc62000e74565b5b828201905092915050565b6000819050919050565b60005b8381101562000df257808201518184015260208101905062000dd5565b8381111562000e02576000848401525b50505050565b6000600282049050600182168062000e2157607f821691505b6020821081141562000e385762000e3762000ea3565b5b50919050565b62000e498262000f01565b810181811067ffffffffffffffff8211171562000e6b5762000e6a62000ed2565b5b80604052505050565b7f4e487b7100000000000000000000000000000000000000000000000000000000600052601160045260246000fd5b7f4e487b7100000000000000000000000000000000000000000000000000000000600052602260045260246000fd5b7f4e487b7100000000000000000000000000000000000000000000000000000000600052604160045260246000fd5b6000601f19601f8301169050919050565b62000f1d8162000dc8565b811462000f2957600080fd5b50565b6148e88062000f3c6000396000f3fe608060405234801561001057600080fd5b50600436106101375760003560e01c80637df124a1116100b8578063b88d4fde1161007c578063b88d4fde1461036b578063c87b56dd14610387578063c8cf27f4146103b7578063d4f24c5b146103d5578063e985e9c5146103df578063f8b81ef71461040f57610137565b80637df124a1146102aa57806395d89b41146102da57806398da4c95146102f8578063a22cb4651461032d578063a9c326791461034957610137565b806323b872dd116100ff57806323b872dd146101f45780633f51643c1461021057806342842e0e1461022e5780636352211e1461024a57806370a082311461027a57610137565b806301ffc9a71461013c5780630665f9611461016c57806306fdde031461018a578063081812fc146101a8578063095ea7b3146101d8575b600080fd5b61015660048036038101906101519190613006565b61042b565b604051610163919061386b565b60405180910390f35b61017461050d565b6040516101819190613c04565b60405180910390f35b610192610669565b60405161019f9190613886565b60405180910390f35b6101c260048036038101906101bd9190613058565b6106fb565b6040516101cf91906137ab565b60405180910390f35b6101f260048036038101906101ed9190612fca565b610780565b005b61020e60048036038101906102099190612ec4565b610898565b005b6102186108f8565b6040516102259190613849565b60405180910390f35b61024860048036038101906102439190612ec4565b610aa3565b005b610264600480360381019061025f9190613058565b610ac3565b60405161027191906137ab565b60405180910390f35b610294600480360381019061028f9190612e5f565b610b75565b6040516102a19190613c48565b60405180910390f35b6102c460048036038101906102bf9190612e5f565b610c2d565b6040516102d19190613c48565b60405180910390f35b6102e2610c45565b6040516102ef9190613886565b60405180910390f35b610312600480360381019061030d9190613058565b610cd7565b60405161032496959493929190613c63565b60405180910390f35b61034760048036038101906103429190612f8e565b610e23565b005b610351610e39565b604051610362959493929190613955565b60405180910390f35b61038560048036038101906103809190612f13565b610f6d565b005b6103a1600480360381019061039c9190613058565b610fcf565b6040516103ae9190613886565b60405180910390f35b6103bf6111ea565b6040516103cc9190613c26565b60405180910390f35b6103dd6113c2565b005b6103f960048036038101906103f49190612e88565b61170b565b604051610406919061386b565b60405180910390f35b61042960048036038101906104249190613058565b61179f565b005b60007f80ac58cd000000000000000000000000000000000000000000000000000000007bffffffffffffffffffffffffffffffffffffffffffffffffffffffff1916827bffffffffffffffffffffffffffffffffffffffffffffffffffffffff191614806104f657507f5b5e139f000000000000000000000000000000000000000000000000000000007bffffffffffffffffffffffffffffffffffffffffffffffffffffffff1916827bffffffffffffffffffffffffffffffffffffffffffffffffffffffff1916145b80610506575061050582611c4b565b5b9050919050565b610515612c86565b60066040518060a001604052908160008201805461053290613f80565b80601f016020809104026020016040519081016040528092919081815260200182805461055e90613f80565b80156105ab5780601f10610580576101008083540402835291602001916105ab565b820191906000526020600020905b81548152906001019060200180831161058e57829003601f168201915b505050505081526020016001820180546105c490613f80565b80601f01602080910402602001604051908101604052809291908181526020018280546105f090613f80565b801561063d5780601f106106125761010080835404028352916020019161063d565b820191906000526020600020905b81548152906001019060200180831161062057829003601f168201915b505050505081526020016002820154815260200160038201548152602001600482015481525050905090565b60606000805461067890613f80565b80601f01602080910402602001604051908101604052809291908181526020018280546106a490613f80565b80156106f15780601f106106c6576101008083540402835291602001916106f1565b820191906000526020600020905b8154815290600101906020018083116106d457829003601f168201915b5050505050905090565b600061070682611cb5565b610745576040517f08c379a000000000000000000000000000000000000000000000000000000000815260040161073c90613ba4565b60405180910390fd5b6004600083815260200190815260200160002060009054906101000a900473ffffffffffffffffffffffffffffffffffffffff169050919050565b600061078b82610ac3565b90508073ffffffffffffffffffffffffffffffffffffffff168373ffffffffffffffffffffffffffffffffffffffff1614156107fc576040517f08c379a00000000000000000000000000000000000000000000000000000000081526004016107f390613bc4565b60405180910390fd5b8073ffffffffffffffffffffffffffffffffffffffff1661081b611d21565b73ffffffffffffffffffffffffffffffffffffffff16148061084a575061084981610844611d21565b61170b565b5b610889576040517f08c379a000000000000000000000000000000000000000000000000000000000815260040161088090613b04565b60405180910390fd5b6108938383611d29565b505050565b6108a96108a3611d21565b82611de2565b6108e8576040517f08c379a00000000000000000000000000000000000000000000000000000000081526004016108df90613be4565b60405180910390fd5b6108f3838383611ec0565b505050565b6060600c805480602002602001604051908101604052809291908181526020016000905b82821015610a9a57838290600052602060002090600602016040518060c00160405290816000820154815260200160018201805461095990613f80565b80601f016020809104026020016040519081016040528092919081815260200182805461098590613f80565b80156109d25780601f106109a7576101008083540402835291602001916109d2565b820191906000526020600020905b8154815290600101906020018083116109b557829003601f168201915b505050505081526020016002820180546109eb90613f80565b80601f0160208091040260200160405190810160405280929190818152602001828054610a1790613f80565b8015610a645780601f10610a3957610100808354040283529160200191610a64565b820191906000526020600020905b815481529060010190602001808311610a4757829003601f168201915b5050505050815260200160038201548152602001600482015481526020016005820154815250508152602001906001019061091c565b50505050905090565b610abe83838360405180602001604052806000815250610f6d565b505050565b6000806002600084815260200190815260200160002060009054906101000a900473ffffffffffffffffffffffffffffffffffffffff169050600073ffffffffffffffffffffffffffffffffffffffff168173ffffffffffffffffffffffffffffffffffffffff161415610b6c576040517f08c379a0000000000000000000000000000000000000000000000000000000008152600401610b6390613b44565b60405180910390fd5b80915050919050565b60008073ffffffffffffffffffffffffffffffffffffffff168273ffffffffffffffffffffffffffffffffffffffff161415610be6576040517f08c379a0000000000000000000000000000000000000000000000000000000008152600401610bdd90613b24565b60405180910390fd5b600360008373ffffffffffffffffffffffffffffffffffffffff1673ffffffffffffffffffffffffffffffffffffffff168152602001908152602001600020549050919050565b600e6020528060005260406000206000915090505481565b606060018054610c5490613f80565b80601f0160208091040260200160405190810160405280929190818152602001828054610c8090613f80565b8015610ccd5780601f10610ca257610100808354040283529160200191610ccd565b820191906000526020600020905b815481529060010190602001808311610cb057829003601f168201915b5050505050905090565b600d602052806000526040600020600091509050806000015490806001018054610d0090613f80565b80601f0160208091040260200160405190810160405280929190818152602001828054610d2c90613f80565b8015610d795780601f10610d4e57610100808354040283529160200191610d79565b820191906000526020600020905b815481529060010190602001808311610d5c57829003601f168201915b505050505090806002018054610d8e90613f80565b80601f0160208091040260200160405190810160405280929190818152602001828054610dba90613f80565b8015610e075780601f10610ddc57610100808354040283529160200191610e07565b820191906000526020600020905b815481529060010190602001808311610dea57829003601f168201915b5050505050908060030154908060040154908060050154905086565b610e35610e2e611d21565b8383612127565b5050565b6006806000018054610e4a90613f80565b80601f0160208091040260200160405190810160405280929190818152602001828054610e7690613f80565b8015610ec35780601f10610e9857610100808354040283529160200191610ec3565b820191906000526020600020905b815481529060010190602001808311610ea657829003601f168201915b505050505090806001018054610ed890613f80565b80601f0160208091040260200160405190810160405280929190818152602001828054610f0490613f80565b8015610f515780601f10610f2657610100808354040283529160200191610f51565b820191906000526020600020905b815481529060010190602001808311610f3457829003601f168201915b5050505050908060020154908060030154908060040154905085565b610f7e610f78611d21565b83611de2565b610fbd576040517f08c379a0000000000000000000000000000000000000000000000000000000008152600401610fb490613be4565b60405180910390fd5b610fc984848484612294565b50505050565b60606000600d60008481526020019081526020016000206040518060c00160405290816000820154815260200160018201805461100b90613f80565b80601f016020809104026020016040519081016040528092919081815260200182805461103790613f80565b80156110845780601f1061105957610100808354040283529160200191611084565b820191906000526020600020905b81548152906001019060200180831161106757829003601f168201915b5050505050815260200160028201805461109d90613f80565b80601f01602080910402602001604051908101604052809291908181526020018280546110c990613f80565b80156111165780601f106110eb57610100808354040283529160200191611116565b820191906000526020600020905b8154815290600101906020018083116110f957829003601f168201915b5050505050815260200160038201548152602001600482015481526020016005820154815250509050600061114e82606001516122f0565b9050600061115f83608001516122f0565b905060006111708460a001516122f0565b905060006111b68560200151611185896122f0565b87604001518787876040516020016111a2969594939291906136e4565b60405160208183030381529060405261249d565b90506000816040516020016111cb9190613789565b6040516020818303038152906040529050809650505050505050919050565b6111f2612cb5565b6000600e60003373ffffffffffffffffffffffffffffffffffffffff1673ffffffffffffffffffffffffffffffffffffffff16815260200190815260200160002054905060008111156113b157600d60008281526020019081526020016000206040518060c00160405290816000820154815260200160018201805461127790613f80565b80601f01602080910402602001604051908101604052809291908181526020018280546112a390613f80565b80156112f05780601f106112c5576101008083540402835291602001916112f0565b820191906000526020600020905b8154815290600101906020018083116112d357829003601f168201915b5050505050815260200160028201805461130990613f80565b80601f016020809104026020016040519081016040528092919081815260200182805461133590613f80565b80156113825780601f1061135757610100808354040283529160200191611382565b820191906000526020600020905b81548152906001019060200180831161136557829003601f168201915b5050505050815260200160038201548152602001600482015481526020016005820154815250509150506113bf565b6113b9612cb5565b80925050505b90565b6000600e60003373ffffffffffffffffffffffffffffffffffffffff1673ffffffffffffffffffffffffffffffffffffffff1681526020019081526020016000205490506000600d600083815260200190815260200160002090506114d56040518060600160405280603c8152602001614877603c913982600101805461144890613f80565b80601f016020809104026020016040519081016040528092919081815260200182805461147490613f80565b80156114c15780601f10611496576101008083540402835291602001916114c1565b820191906000526020600020905b8154815290600101906020018083116114a457829003601f168201915b50505050508360030154846005015461265b565b6115ad6040518060400160405280601b81526020017f426f73732025732068617320257320485020616e6420257320414400000000008152506006600001805461151e90613f80565b80601f016020809104026020016040519081016040528092919081815260200182805461154a90613f80565b80156115975780601f1061156c57610100808354040283529160200191611597565b820191906000526020600020905b81548152906001019060200180831161157a57829003601f168201915b505050505060066002015460066004015461265b565b60008160030154116115f4576040517f08c379a00000000000000000000000000000000000000000000000000000000081526004016115eb90613b64565b60405180910390fd5b60006006600201541161163c576040517f08c379a000000000000000000000000000000000000000000000000000000000815260040161163390613a64565b60405180910390fd5b8060050154600660020154101561165d57600060066002018190555061167c565b80600501546006600201546116729190613e96565b6006600201819055505b6006600401548160030154101561169c57600081600301819055506116ba565b60066004015481600301546116b19190613e96565b81600301819055505b6116e16040518060600160405280602581526020016147bc602591396006600201546126fd565b6117076040518060600160405280602881526020016148216028913982600301546126fd565b5050565b6000600560008473ffffffffffffffffffffffffffffffffffffffff1673ffffffffffffffffffffffffffffffffffffffff16815260200190815260200160002060008373ffffffffffffffffffffffffffffffffffffffff1673ffffffffffffffffffffffffffffffffffffffff16815260200190815260200160002060009054906101000a900460ff16905092915050565b60006117ab600b612799565b90506117b733826127a7565b6040518060c00160405280838152602001600c8481548110611802577f4e487b7100000000000000000000000000000000000000000000000000000000600052603260045260246000fd5b9060005260206000209060060201600101805461181e90613f80565b80601f016020809104026020016040519081016040528092919081815260200182805461184a90613f80565b80156118975780601f1061186c57610100808354040283529160200191611897565b820191906000526020600020905b81548152906001019060200180831161187a57829003601f168201915b50505050508152602001600c84815481106118db577f4e487b7100000000000000000000000000000000000000000000000000000000600052603260045260246000fd5b906000526020600020906006020160020180546118f790613f80565b80601f016020809104026020016040519081016040528092919081815260200182805461192390613f80565b80156119705780601f1061194557610100808354040283529160200191611970565b820191906000526020600020905b81548152906001019060200180831161195357829003601f168201915b50505050508152602001600c84815481106119b4577f4e487b7100000000000000000000000000000000000000000000000000000000600052603260045260246000fd5b9060005260206000209060060201600301548152602001600c8481548110611a05577f4e487b7100000000000000000000000000000000000000000000000000000000600052603260045260246000fd5b9060005260206000209060060201600401548152602001600c8481548110611a56577f4e487b7100000000000000000000000000000000000000000000000000000000600052603260045260246000fd5b906000526020600020906006020160050154815250600d6000838152602001908152602001600020600082015181600001556020820151816001019080519060200190611aa4929190612ceb565b506040820151816002019080519060200190611ac1929190612ceb565b50606082015181600301556080820151816004015560a08201518160050155905050611b066040518060600160405280602e8152602001614849602e913982846127c5565b80600e60003373ffffffffffffffffffffffffffffffffffffffff1673ffffffffffffffffffffffffffffffffffffffff16815260200190815260200160002081905550611b54600b611c35565b7f4bc303fd457a97b4691b9af582ce71868a3d258638c8d4f8c60988a0f0bfb8cd338284604051611b8793929190613812565b60405180910390a15050565b611c2f84848484604051602401611bad94939291906138a8565b6040516020818303038152906040527f8d142cdd000000000000000000000000000000000000000000000000000000007bffffffffffffffffffffffffffffffffffffffffffffffffffffffff19166020820180517bffffffffffffffffffffffffffffffffffffffffffffffffffffffff8381831617835250505050612864565b50505050565b6001816000016000828254019250508190555050565b60007f01ffc9a7000000000000000000000000000000000000000000000000000000007bffffffffffffffffffffffffffffffffffffffffffffffffffffffff1916827bffffffffffffffffffffffffffffffffffffffffffffffffffffffff1916149050919050565b60008073ffffffffffffffffffffffffffffffffffffffff166002600084815260200190815260200160002060009054906101000a900473ffffffffffffffffffffffffffffffffffffffff1673ffffffffffffffffffffffffffffffffffffffff1614159050919050565b600033905090565b816004600083815260200190815260200160002060006101000a81548173ffffffffffffffffffffffffffffffffffffffff021916908373ffffffffffffffffffffffffffffffffffffffff160217905550808273ffffffffffffffffffffffffffffffffffffffff16611d9c83610ac3565b73ffffffffffffffffffffffffffffffffffffffff167f8c5be1e5ebec7d5bd14f71427d1e84f3dd0314c0f7b2291e5b200ac8c7c3b92560405160405180910390a45050565b6000611ded82611cb5565b611e2c576040517f08c379a0000000000000000000000000000000000000000000000000000000008152600401611e2390613ae4565b60405180910390fd5b6000611e3783610ac3565b90508073ffffffffffffffffffffffffffffffffffffffff168473ffffffffffffffffffffffffffffffffffffffff161480611e795750611e78818561170b565b5b80611eb757508373ffffffffffffffffffffffffffffffffffffffff16611e9f846106fb565b73ffffffffffffffffffffffffffffffffffffffff16145b91505092915050565b8273ffffffffffffffffffffffffffffffffffffffff16611ee082610ac3565b73ffffffffffffffffffffffffffffffffffffffff1614611f36576040517f08c379a0000000000000000000000000000000000000000000000000000000008152600401611f2d90613a44565b60405180910390fd5b600073ffffffffffffffffffffffffffffffffffffffff168273ffffffffffffffffffffffffffffffffffffffff161415611fa6576040517f08c379a0000000000000000000000000000000000000000000000000000000008152600401611f9d90613aa4565b60405180910390fd5b611fb183838361288d565b611fbc600082611d29565b6001600360008573ffffffffffffffffffffffffffffffffffffffff1673ffffffffffffffffffffffffffffffffffffffff168152602001908152602001600020600082825461200c9190613e96565b925050819055506001600360008473ffffffffffffffffffffffffffffffffffffffff1673ffffffffffffffffffffffffffffffffffffffff16815260200190815260200160002060008282546120639190613db5565b92505081905550816002600083815260200190815260200160002060006101000a81548173ffffffffffffffffffffffffffffffffffffffff021916908373ffffffffffffffffffffffffffffffffffffffff160217905550808273ffffffffffffffffffffffffffffffffffffffff168473ffffffffffffffffffffffffffffffffffffffff167fddf252ad1be2c89b69c2b068fc378daa952ba7f163c4a11628f55a4df523b3ef60405160405180910390a4612122838383612892565b505050565b8173ffffffffffffffffffffffffffffffffffffffff168373ffffffffffffffffffffffffffffffffffffffff161415612196576040517f08c379a000000000000000000000000000000000000000000000000000000000815260040161218d90613ac4565b60405180910390fd5b80600560008573ffffffffffffffffffffffffffffffffffffffff1673ffffffffffffffffffffffffffffffffffffffff16815260200190815260200160002060008473ffffffffffffffffffffffffffffffffffffffff1673ffffffffffffffffffffffffffffffffffffffff16815260200190815260200160002060006101000a81548160ff0219169083151502179055508173ffffffffffffffffffffffffffffffffffffffff168373ffffffffffffffffffffffffffffffffffffffff167f17307eab39ab6107e8899845ad3d59bd9653f200f220920489ca2b5937696c3183604051612287919061386b565b60405180910390a3505050565b61229f848484611ec0565b6122ab84848484612897565b6122ea576040517f08c379a00000000000000000000000000000000000000000000000000000000081526004016122e190613a24565b60405180910390fd5b50505050565b60606000821415612338576040518060400160405280600181526020017f30000000000000000000000000000000000000000000000000000000000000008152509050612498565b600082905060005b6000821461236a57808061235390613fe3565b915050600a826123639190613e0b565b9150612340565b60008167ffffffffffffffff8111156123ac577f4e487b7100000000000000000000000000000000000000000000000000000000600052604160045260246000fd5b6040519080825280601f01601f1916602001820160405280156123de5781602001600182028036833780820191505090505b5090505b60008514612491576001826123f79190613e96565b9150600a85612406919061402c565b60306124129190613db5565b60f81b81838151811061244e577f4e487b7100000000000000000000000000000000000000000000000000000000600052603260045260246000fd5b60200101907effffffffffffffffffffffffffffffffffffffffffffffffffffffffffffff1916908160001a905350600a8561248a9190613e0b565b94506123e2565b8093505050505b919050565b606060008251905060008114156124c65760405180602001604052806000815250915050612656565b600060036002836124d79190613db5565b6124e19190613e0b565b60046124ed9190613e3c565b905060006020826124fe9190613db5565b67ffffffffffffffff81111561253d577f4e487b7100000000000000000000000000000000000000000000000000000000600052604160045260246000fd5b6040519080825280601f01601f19166020018201604052801561256f5781602001600182028036833780820191505090505b50905060006040518060600160405280604081526020016147e1604091399050600181016020830160005b868110156126135760038101905062ffffff818a015116603f8160121c168401518060081b905060ff603f83600c1c1686015116810190508060081b905060ff603f8360061c1686015116810190508060081b905060ff603f831686015116810190508060e01b9050808452600484019350505061259a565b50600386066001811461262d576002811461263d57612648565b613d3d60f01b6002830352612648565b603d60f81b60018303525b508484525050819450505050505b919050565b6126f7848484846040516024016126759493929190613902565b6040516020818303038152906040527fd5cf17d0000000000000000000000000000000000000000000000000000000007bffffffffffffffffffffffffffffffffffffffffffffffffffffffff19166020820180517bffffffffffffffffffffffffffffffffffffffffffffffffffffffff8381831617835250505050612864565b50505050565b61279582826040516024016127139291906139b6565b6040516020818303038152906040527f9710a9d0000000000000000000000000000000000000000000000000000000007bffffffffffffffffffffffffffffffffffffffffffffffffffffffff19166020820180517bffffffffffffffffffffffffffffffffffffffffffffffffffffffff8381831617835250505050612864565b5050565b600081600001549050919050565b6127c1828260405180602001604052806000815250612a2e565b5050565b61285f8383836040516024016127dd939291906139e6565b6040516020818303038152906040527f969cdd03000000000000000000000000000000000000000000000000000000007bffffffffffffffffffffffffffffffffffffffffffffffffffffffff19166020820180517bffffffffffffffffffffffffffffffffffffffffffffffffffffffff8381831617835250505050612864565b505050565b60008151905060006a636f6e736f6c652e6c6f679050602083016000808483855afa5050505050565b505050565b505050565b60006128b88473ffffffffffffffffffffffffffffffffffffffff16612a89565b15612a21578373ffffffffffffffffffffffffffffffffffffffff1663150b7a026128e1611d21565b8786866040518563ffffffff1660e01b815260040161290394939291906137c6565b602060405180830381600087803b15801561291d57600080fd5b505af192505050801561294e57506040513d601f19601f8201168201806040525081019061294b919061302f565b60015b6129d1573d806000811461297e576040519150601f19603f3d011682016040523d82523d6000602084013e612983565b606091505b506000815114156129c9576040517f08c379a00000000000000000000000000000000000000000000000000000000081526004016129c090613a24565b60405180910390fd5b805181602001fd5b63150b7a0260e01b7bffffffffffffffffffffffffffffffffffffffffffffffffffffffff1916817bffffffffffffffffffffffffffffffffffffffffffffffffffffffff191614915050612a26565b600190505b949350505050565b612a388383612aac565b612a456000848484612897565b612a84576040517f08c379a0000000000000000000000000000000000000000000000000000000008152600401612a7b90613a24565b60405180910390fd5b505050565b6000808273ffffffffffffffffffffffffffffffffffffffff163b119050919050565b600073ffffffffffffffffffffffffffffffffffffffff168273ffffffffffffffffffffffffffffffffffffffff161415612b1c576040517f08c379a0000000000000000000000000000000000000000000000000000000008152600401612b1390613b84565b60405180910390fd5b612b2581611cb5565b15612b65576040517f08c379a0000000000000000000000000000000000000000000000000000000008152600401612b5c90613a84565b60405180910390fd5b612b716000838361288d565b6001600360008473ffffffffffffffffffffffffffffffffffffffff1673ffffffffffffffffffffffffffffffffffffffff1681526020019081526020016000206000828254612bc19190613db5565b92505081905550816002600083815260200190815260200160002060006101000a81548173ffffffffffffffffffffffffffffffffffffffff021916908373ffffffffffffffffffffffffffffffffffffffff160217905550808273ffffffffffffffffffffffffffffffffffffffff16600073ffffffffffffffffffffffffffffffffffffffff167fddf252ad1be2c89b69c2b068fc378daa952ba7f163c4a11628f55a4df523b3ef60405160405180910390a4612c8260008383612892565b5050565b6040518060a0016040528060608152602001606081526020016000815260200160008152602001600081525090565b6040518060c001604052806000815260200160608152602001606081526020016000815260200160008152602001600081525090565b828054612cf790613f80565b90600052602060002090601f016020900481019282612d195760008555612d60565b82601f10612d3257805160ff1916838001178555612d60565b82800160010185558215612d60579182015b82811115612d5f578251825591602001919060010190612d44565b5b509050612d6d9190612d71565b5090565b5b80821115612d8a576000816000905550600101612d72565b5090565b6000612da1612d9c84613cf7565b613cd2565b905082815260208101848484011115612db957600080fd5b612dc4848285613f3e565b509392505050565b600081359050612ddb8161475f565b92915050565b600081359050612df081614776565b92915050565b600081359050612e058161478d565b92915050565b600081519050612e1a8161478d565b92915050565b600082601f830112612e3157600080fd5b8135612e41848260208601612d8e565b91505092915050565b600081359050612e59816147a4565b92915050565b600060208284031215612e7157600080fd5b6000612e7f84828501612dcc565b91505092915050565b60008060408385031215612e9b57600080fd5b6000612ea985828601612dcc565b9250506020612eba85828601612dcc565b9150509250929050565b600080600060608486031215612ed957600080fd5b6000612ee786828701612dcc565b9350506020612ef886828701612dcc565b9250506040612f0986828701612e4a565b9150509250925092565b60008060008060808587031215612f2957600080fd5b6000612f3787828801612dcc565b9450506020612f4887828801612dcc565b9350506040612f5987828801612e4a565b925050606085013567ffffffffffffffff811115612f7657600080fd5b612f8287828801612e20565b91505092959194509250565b60008060408385031215612fa157600080fd5b6000612faf85828601612dcc565b9250506020612fc085828601612de1565b9150509250929050565b60008060408385031215612fdd57600080fd5b6000612feb85828601612dcc565b9250506020612ffc85828601612e4a565b9150509250929050565b60006020828403121561301857600080fd5b600061302684828501612df6565b91505092915050565b60006020828403121561304157600080fd5b600061304f84828501612e0b565b91505092915050565b60006020828403121561306a57600080fd5b600061307884828501612e4a565b91505092915050565b600061308d83836135a6565b905092915050565b61309e81613eca565b82525050565b60006130af82613d38565b6130b98185613d66565b9350836020820285016130cb85613d28565b8060005b8581101561310757848403895281516130e88582613081565b94506130f383613d59565b925060208a019950506001810190506130cf565b50829750879550505050505092915050565b61312281613edc565b82525050565b600061313382613d43565b61313d8185613d77565b935061314d818560208601613f4d565b61315681614119565b840191505092915050565b600061316c82613d4e565b6131768185613d88565b9350613186818560208601613f4d565b61318f81614119565b840191505092915050565b60006131a582613d4e565b6131af8185613d99565b93506131bf818560208601613f4d565b6131c881614119565b840191505092915050565b60006131de82613d4e565b6131e88185613daa565b93506131f8818560208601613f4d565b80840191505092915050565b6000613211600b83613daa565b915061321c8261412a565b600b82019050919050565b6000613234603283613d99565b915061323f82614153565b604082019050919050565b6000613257602583613d99565b9150613262826141a2565b604082019050919050565b600061327a602883613d99565b9150613285826141f1565b604082019050919050565b600061329d601c83613d99565b91506132a882614240565b602082019050919050565b60006132c0600e83613daa565b91506132cb82614269565b600e82019050919050565b60006132e3602483613d99565b91506132ee82614292565b604082019050919050565b6000613306601983613d99565b9150613311826142e1565b602082019050919050565b6000613329602c83613d99565b91506133348261430a565b604082019050919050565b600061334c603883613d99565b915061335782614359565b604082019050919050565b600061336f602a83613d99565b915061337a826143a8565b604082019050919050565b6000613392602983613d99565b915061339d826143f7565b604082019050919050565b60006133b5606283613daa565b91506133c082614446565b606282019050919050565b60006133d8602d83613d99565b91506133e3826144e1565b604082019050919050565b60006133fb600483613daa565b915061340682614530565b600482019050919050565b600061341e602083613d99565b915061342982614559565b602082019050919050565b6000613441602c83613d99565b915061344c82614582565b604082019050919050565b6000613464600a83613daa565b915061346f826145d1565b600a82019050919050565b6000613487602183613d99565b9150613492826145fa565b604082019050919050565b60006134aa601d83613daa565b91506134b582614649565b601d82019050919050565b60006134cd603183613d99565b91506134d882614672565b604082019050919050565b60006134f0603d83613daa565b91506134fb826146c1565b603d82019050919050565b6000613513602d83613daa565b915061351e82614710565b602d82019050919050565b600060a08301600083015184820360008601526135468282613161565b915050602083015184820360208601526135608282613161565b915050604083015161357560408601826136c6565b50606083015161358860608601826136c6565b50608083015161359b60808601826136c6565b508091505092915050565b600060c0830160008301516135be60008601826136c6565b50602083015184820360208601526135d68282613161565b915050604083015184820360408601526135f08282613161565b915050606083015161360560608601826136c6565b50608083015161361860808601826136c6565b5060a083015161362b60a08601826136c6565b508091505092915050565b600060c08301600083015161364e60008601826136c6565b50602083015184820360208601526136668282613161565b915050604083015184820360408601526136808282613161565b915050606083015161369560608601826136c6565b5060808301516136a860808601826136c6565b5060a08301516136bb60a08601826136c6565b508091505092915050565b6136cf81613f34565b82525050565b6136de81613f34565b82525050565b60006136ef82613457565b91506136fb82896131d3565b915061370682613204565b915061371282886131d3565b915061371d826133a8565b915061372982876131d3565b9150613734826134e3565b915061374082866131d3565b915061374b826132b3565b915061375782856131d3565b915061376282613506565b915061376e82846131d3565b9150613779826133ee565b9150819050979650505050505050565b60006137948261349d565b91506137a082846131d3565b915081905092915050565b60006020820190506137c06000830184613095565b92915050565b60006080820190506137db6000830187613095565b6137e86020830186613095565b6137f560408301856136d5565b81810360608301526138078184613128565b905095945050505050565b60006060820190506138276000830186613095565b61383460208301856136d5565b61384160408301846136d5565b949350505050565b6000602082019050818103600083015261386381846130a4565b905092915050565b60006020820190506138806000830184613119565b92915050565b600060208201905081810360008301526138a0818461319a565b905092915050565b600060808201905081810360008301526138c2818761319a565b905081810360208301526138d6818661319a565b90506138e560408301856136d5565b81810360608301526138f7818461319a565b905095945050505050565b6000608082019050818103600083015261391c818761319a565b90508181036020830152613930818661319a565b905061393f60408301856136d5565b61394c60608301846136d5565b95945050505050565b600060a082019050818103600083015261396f818861319a565b90508181036020830152613983818761319a565b905061399260408301866136d5565b61399f60608301856136d5565b6139ac60808301846136d5565b9695505050505050565b600060408201905081810360008301526139d0818561319a565b90506139df60208301846136d5565b9392505050565b60006060820190508181036000830152613a00818661319a565b9050613a0f60208301856136d5565b613a1c60408301846136d5565b949350505050565b60006020820190508181036000830152613a3d81613227565b9050919050565b60006020820190508181036000830152613a5d8161324a565b9050919050565b60006020820190508181036000830152613a7d8161326d565b9050919050565b60006020820190508181036000830152613a9d81613290565b9050919050565b60006020820190508181036000830152613abd816132d6565b9050919050565b60006020820190508181036000830152613add816132f9565b9050919050565b60006020820190508181036000830152613afd8161331c565b9050919050565b60006020820190508181036000830152613b1d8161333f565b9050919050565b60006020820190508181036000830152613b3d81613362565b9050919050565b60006020820190508181036000830152613b5d81613385565b9050919050565b60006020820190508181036000830152613b7d816133cb565b9050919050565b60006020820190508181036000830152613b9d81613411565b9050919050565b60006020820190508181036000830152613bbd81613434565b9050919050565b60006020820190508181036000830152613bdd8161347a565b9050919050565b60006020820190508181036000830152613bfd816134c0565b9050919050565b60006020820190508181036000830152613c1e8184613529565b905092915050565b60006020820190508181036000830152613c408184613636565b905092915050565b6000602082019050613c5d60008301846136d5565b92915050565b600060c082019050613c7860008301896136d5565b8181036020830152613c8a818861319a565b90508181036040830152613c9e818761319a565b9050613cad60608301866136d5565b613cba60808301856136d5565b613cc760a08301846136d5565b979650505050505050565b6000613cdc613ced565b9050613ce88282613fb2565b919050565b6000604051905090565b600067ffffffffffffffff821115613d1257613d116140ea565b5b613d1b82614119565b9050602081019050919050565b6000819050602082019050919050565b600081519050919050565b600081519050919050565b600081519050919050565b6000602082019050919050565b600082825260208201905092915050565b600082825260208201905092915050565b600082825260208201905092915050565b600082825260208201905092915050565b600081905092915050565b6000613dc082613f34565b9150613dcb83613f34565b9250827fffffffffffffffffffffffffffffffffffffffffffffffffffffffffffffffff03821115613e0057613dff61405d565b5b828201905092915050565b6000613e1682613f34565b9150613e2183613f34565b925082613e3157613e3061408c565b5b828204905092915050565b6000613e4782613f34565b9150613e5283613f34565b9250817fffffffffffffffffffffffffffffffffffffffffffffffffffffffffffffffff0483118215151615613e8b57613e8a61405d565b5b828202905092915050565b6000613ea182613f34565b9150613eac83613f34565b925082821015613ebf57613ebe61405d565b5b828203905092915050565b6000613ed582613f14565b9050919050565b60008115159050919050565b60007fffffffff0000000000000000000000000000000000000000000000000000000082169050919050565b600073ffffffffffffffffffffffffffffffffffffffff82169050919050565b6000819050919050565b82818337600083830152505050565b60005b83811015613f6b578082015181840152602081019050613f50565b83811115613f7a576000848401525b50505050565b60006002820490506001821680613f9857607f821691505b60208210811415613fac57613fab6140bb565b5b50919050565b613fbb82614119565b810181811067ffffffffffffffff82111715613fda57613fd96140ea565b5b80604052505050565b6000613fee82613f34565b91507fffffffffffffffffffffffffffffffffffffffffffffffffffffffffffffffff8214156140215761402061405d565b5b600182019050919050565b600061403782613f34565b915061404283613f34565b9250826140525761405161408c565b5b828206905092915050565b7f4e487b7100000000000000000000000000000000000000000000000000000000600052601160045260246000fd5b7f4e487b7100000000000000000000000000000000000000000000000000000000600052601260045260246000fd5b7f4e487b7100000000000000000000000000000000000000000000000000000000600052602260045260246000fd5b7f4e487b7100000000000000000000000000000000000000000000000000000000600052604160045260246000fd5b6000601f19601f8301169050919050565b7f202d2d204e465420233a20000000000000000000000000000000000000000000600082015250565b7f4552433732313a207472616e7366657220746f206e6f6e20455243373231526560008201527f63656976657220696d706c656d656e7465720000000000000000000000000000602082015250565b7f4552433732313a207472616e736665722066726f6d20696e636f72726563742060008201527f6f776e6572000000000000000000000000000000000000000000000000000000602082015250565b7f4572726f723a20626f7373206d757374206861766520485020746f206174746160008201527f636b20626f73732e000000000000000000000000000000000000000000000000602082015250565b7f4552433732313a20746f6b656e20616c7265616479206d696e74656400000000600082015250565b7f2c20226d61785f76616c7565223a000000000000000000000000000000000000600082015250565b7f4552433732313a207472616e7366657220746f20746865207a65726f2061646460008201527f7265737300000000000000000000000000000000000000000000000000000000602082015250565b7f4552433732313a20617070726f766520746f2063616c6c657200000000000000600082015250565b7f4552433732313a206f70657261746f7220717565727920666f72206e6f6e657860008201527f697374656e7420746f6b656e0000000000000000000000000000000000000000602082015250565b7f4552433732313a20617070726f76652063616c6c6572206973206e6f74206f7760008201527f6e6572206e6f7220617070726f76656420666f7220616c6c0000000000000000602082015250565b7f4552433732313a2062616c616e636520717565727920666f7220746865207a6560008201527f726f206164647265737300000000000000000000000000000000000000000000602082015250565b7f4552433732313a206f776e657220717565727920666f72206e6f6e657869737460008201527f656e7420746f6b656e0000000000000000000000000000000000000000000000602082015250565b7f222c20226465736372697074696f6e223a20225468697320697320616e204e4660008201527f542074686174206c6574732070656f706c6520706c617920696e20746865206760208201527f616d65204d657461766572736520536c6179657221222c2022696d616765223a60408201527f2022000000000000000000000000000000000000000000000000000000000000606082015250565b7f4572726f723a20636861726163746572206d757374206861766520485020746f60008201527f2061747461636b20626f73732e00000000000000000000000000000000000000602082015250565b7f7d205d7d00000000000000000000000000000000000000000000000000000000600082015250565b7f4552433732313a206d696e7420746f20746865207a65726f2061646472657373600082015250565b7f4552433732313a20617070726f76656420717565727920666f72206e6f6e657860008201527f697374656e7420746f6b656e0000000000000000000000000000000000000000602082015250565b7f7b226e616d65223a202200000000000000000000000000000000000000000000600082015250565b7f4552433732313a20617070726f76616c20746f2063757272656e74206f776e6560008201527f7200000000000000000000000000000000000000000000000000000000000000602082015250565b7f646174613a6170706c69636174696f6e2f6a736f6e3b6261736536342c000000600082015250565b7f4552433732313a207472616e736665722063616c6c6572206973206e6f74206f60008201527f776e6572206e6f7220617070726f766564000000000000000000000000000000602082015250565b7f222c202261747472696275746573223a205b207b202274726169745f7479706560008201527f223a20224865616c746820506f696e7473222c202276616c7565223a20000000602082015250565b7f7d2c207b202274726169745f74797065223a202241747461636b2044616d616760008201527f65222c202276616c7565223a2000000000000000000000000000000000000000602082015250565b61476881613eca565b811461477357600080fd5b50565b61477f81613edc565b811461478a57600080fd5b50565b61479681613ee8565b81146147a157600080fd5b50565b6147ad81613f34565b81146147b857600080fd5b5056fe506c617965722061747461636b656420626f73732e204e657720626f73732068703a2025734142434445464748494a4b4c4d4e4f505152535455565758595a6162636465666768696a6b6c6d6e6f707172737475767778797a303132333435363738392b2f426f73732061747461636b656420706c617965722e204e657720706c617965722068703a2025730a4d696e746564204e465420772f20746f6b656e496420257320616e6420636861726163746572496e6465782025730a506c6179657220772f206368617261637465722025732061626f757420746f2061747461636b2e2048617320257320485020616e64202573204144a264697066735822122017c9a75470c431a669fae9109895308bdd6ad0fb797d34f47b00ff042965f06864736f6c63430008040033446f6e6520696e697469616c697a696e6720257320772f2048502025732c20696d67202573446f6e6520696e697469616c697a696e6720626f737320257320772f2048502025732c20696d67202573",
  "linkReferences": {},
  "deployedLinkReferences": {}
}